:02000000801E60
:02000300804F2C
:02000B0001DF13
:02001300804526
:10002000E5875410700EB8A50BB9C308BA2405BBF8
:10003000660201B47410F45587F58775814F314716
:100040003173120AB731E531EBD2AF316D71D63170
:10005000E2020B7E30B2FDC2A83230B3FDC2AA323A
:100060007508FF22D5080374FF22740022D5080208
:1000700011732231E53170C0E0C0F0C000C001C092
:1000800002C003C004C0D0C088C089C08AC08CC070
:100090008BC08DC0A8C0B87590FF75A0FF7580FF9C
:1000A00043B03F78A579C37A247B66AC81D2A8D2CD
:1000B000AA438702C2AAC2A88C81D0B8D0A8D08D8A
:1000C000D08BD08CD08AD089D088D0D0D004D00327
:1000D000D002D001D000D0F0D0E0316D31E222C2A8
:1000E0008CC0E0C000C0D0D5092F7509047580FF11
:1000F000E50CC333F50CE50D33F50DF4F5A0E50C77
:100100003400F50CF4F590050BE50BB43003750BDA
:1001100020A80BE6F4F580801F000000000000001E
:1001200000000000000000000000000000000000CF
:100130000000000000000000750AFF758A00D0D0A2
:10014000D000D0E0D28C32438902758C00758A00D1
:10015000750904D2A9D2B9750C01750D00750B2073
:100160007590FF75A0FF7580FF1201E522D28C22E9
:10017000C28C2243B03F750E3F750F3F22C000C0B6
:10018000D0F8E50FF458D0D0D00022C000C001C094
:10019000D0F9E50E59F8E50F596958D0D0D001D003
:1001A0000022C0E0C0D0C00FC00E750F00116074F7
:1001B000015141850F0E85B00F743F318B700411D2
:1001C0006D80ECD00ED00FD0D0D0E022C0E0C0D0F7
:1001D000C00F85B00F743C317D70F7D00FD0D0D0F8
:1001E000E022C2B622D2B622C2B722D2B722C0E0E3
:1001F000C000C001C0D07904781274FF750A00B540
:100200000AFDD8F6D9F2D0D0D001D000D0E022C07B
:10021000E0C000C001C0D0790478B274FF750A0054
:10022000B50AFDD8F6D9F2D0D0D001D000D0E02266
:10023000C000C0D06006F81201EED8FBD0D0D000CC
:1002400022C000C0D06006F812020FD8FBD0D0D078
:100250000022C0E0C0D0E51A2323234519451BF531
:1002600018D0D0D0E022C0E0C0D085181953198032
:10027000E5185478030303F51A85181B531B07D0A0
:10028000D0D0E022C0E0C000C0D07420251AF851C0
:10029000D146F6D0D0D000D0E022C0E0C000C0D01F
:1002A0007420251AF851D1F456F6D0D0D000D0E001
:1002B00022C0E0C000C0D07420251AF851D1566089
:1002C00008D0D0D000D0E0D322D0D0D000D0E0C32E
:1002D00022E51B0483220102040810204080C00094
:1002E000C0D07820760008B830FAD0D0D00022C034
:1002F000E0C0D0C01AC01BC01CC01DE51DB51F301A
:10030000E5197016851D1B851C1A5184E51CB51E48
:1003100002804D051C531C0F80ED851D1B851C1A8A
:100320005184E51CB51E028037151C531C0F80ED4F
:10033000E5197016851C1A851D1B5184E51DB51F16
:1003400002801D051D531D0780ED851C1A851D1B90
:100350005184E51DB51F028007151D531D0780ED53
:10036000D01DD01CD01BD01AD0D0D0E022C0E0C00D
:10037000F0C000C001C002C0D0F8742025F0F9E838
:1003800075F005A4F87A05E8719CF70809DAF8D049
:0D039000D0D002D001D000D0F0D0E0220487
:10039D0083227CA2928A7C2242FE0202468A92A28B
:1003AD0042549292926C1828489E08E2A2A2A29CF6
:1003BD007C9292924C828C8898E06C9292926C64B2
:1003CD009292927C0000000000C0E0C000C001C00D
:1003DD00D051DE910731E27414514131E551413173
:1003ED00E2780091287408513008B833F651DE31A7
:1003FD00E5D0D0D001D000D0E02278007920E8916E
:10040D0015F70809B930F7220483226C92926C7C9F
:10041D0082827CE2A2A29C2242FE02C0007920E8E8
:10042D009138F70809B930F7D00022048322000073
:10043D0000000000000000000000000000006092BD
:10044D0092920C00FE403804FE007E9090907E004B
:10045D00FE10284482007C929292920060929292B9
:10046D000C00000000000000000000000000000073
:10047D0000C0E0C000C001C002C003C0D0C019C0A0
:10048D001CC01DC01EC01FC00EC00F7A64AB105122
:10049D00DEB112BB0C028002B133B14831CC750E06
:1004AD000085B00F7408318B6002803A7401317D84
:1004BD006006B18A7A6480177410317D6006B16E62
:1004CD007A64800B743F318B60057A64750F0085FB
:1004DD000F0E74015141B1A6DA02800A7401514127
:1004ED0031EBB1A6DABB31EB51DED00FD00ED01F00
:1004FD00D01ED01DD01CD019D0D0D003D002D00129
:10050D00D000D0E02278007920E8B120F70809B9B1
:10051D0030F722048322EAAABA00F8E000F8A80016
:10052D00F8A800FA8F72751A02051A751B00740C63
:10053D00C39510F85184051AD8FA22751B0278005C
:10054D00881A518408B803F8051A5184751C007572
:10055D001D02751E03751F02751A0E751B0251843F
:10056D0022A810B80C0331E822740CC39510240294
:10057D00F51A751B00519A05100B31E822A810B819
:10058D00020331E822740CC39510240204F51A7588
:10059D001B005184151031E822DB24AB10051E53CE
:1005AD001E0F851E1A851F1B5184851C1A851D1B48
:1005BD00519A051C531C0F751A0E751B025184227E
:1005CD00750E0051DED12822C0E0C000C001C00E62
:1005DD00C00FC0D0B1CD116085B00F743F317D70AB
:1005ED0004116D801E11607404318B6002801D74C6
:1005FD0008318B6006917EB1CD80087410318B600F
:10060D00028009850F0E7401514180CC51DED0D08E
:10061D00D00FD00ED001D000D0E02278007920E8A4
:10062D00D136F70809B930F72204832202F9A2E482
:10063D0000F808080078A07800C038C0750E005189
:10064D00DED1C222C000C001C00EC00FC0D0D14942
:10065D00116085B00F743F317D7004116D804D11A7
:10066D00607404318B600F51DED0D0D00FD00ED01E
:10067D0001D00074FF227408318B6006917ED14940
:10068D00802A7401318B600F51DED0D0D00FD00E87
:10069D00D001D0007400227410318B600F51DED068
:1006AD00D0D00FD00ED001D00074FF22850F0E7464
:1006BD00015141809D78007920E8D1D0F70809B922
:1006CD0030F72204832202F9A2E400F8080800782A
:0606DD00A07800C53AC53B
:10080100438920758D00758B002275140011197EA6
:100811000022D28E22C28E22E51075F014A4FD2290
:10082100DD25E514600E7514008515181202661297
:10083100029A80117514FF11497005751400800525
:100841008518151188111922858B18120266851ACF
:100851001C851B1D1202B1501B051A531A0FE51AF4
:100861007005051B531B07E51AB51CE8E51BB51DF3
:10087100E374002275190012025274FF22119605C9
:1008810013751400111922E5146009851518120257
:1008910066120284221201E87E0222EE6005DE0366
:1008A1001201EB221CEC60022149AC10E517601823
:1008B100319960115128700DA812E6547F513A45C3
:1008C10019F6851716751700513E120252AA18C063
:1008D1001BC01A5177120252AB18D01CD01D851AB9
:1008E1001E851B1FE514600AEB547FB51504117EAC
:1008F1008044A8118618120266E51AB51E07E51B89
:10090100B51F02800E851E1A851F1B1202B15003EE
:10091100740022A811861812026612029A51A18748
:1009210018120266E51AB51C09E51BB51D0451AA8A
:1009310080048A18A618851E1A851F1B1202848B33
:100941001853187FA812A61874FF22A811E8F9B944
:100951004F0479308001098718120266851A1E85B5
:100961001B1F8618120266851A1C851B1D1202EFB9
:10097100E9F8B512D8118822E51375F06484E5F021
:1009810075F00A84A8F07002740A75F00212036D02
:10099100E875F00912036D22E516B40121E517B4DB
:1009A100010551B2740022B4020675190074FF22C8
:1009B100B4030551AD74002275198074FF22B4028D
:1009C10021E517B4010675190074FF22B40205511F
:1009D100B2740022B4030675198074FF2251AD74FC
:1009E1000022B40321E517B4010551AD740022B40E
:1009F100020675190074FF22B4030551B274002276
:100A010075198074FF22E517B4010675190074FF8A
:100A110022B4020551AD740022B403067519807425
:100A2100FF2251B2740022A91209B950027930E9AA
:100A3100B5110374FF22740022F7891222A8115103
:100A4100A18718120266851A1E851B1F86181202BD
:100A510066E51BB51F10E5197006051A531A0F221A
:100A6100151A531A0F22E5197006051B531B07228D
:100A7100151B531B0722A8128618120266E516B42D
:100A81000106051A531A0F22B40206051B531B0750
:100A910022B40306151A531A0F22151B531B0722E2
:100AA100A91109B95002793022891122ECC333FC12
:100AB10022ECC313FC227510071101227511307548
:100AC100123005127513007516017517007519009E
:100AD100751B03751A00120252A811A618751A0384
:100AE10012025253187FA812A618AC10110B111341
:100AF1001202DE314C2211161201EB22AC10111937
:100B010011131202DE314C118822119C112111A501
:100B11002251F722E517600122740112017D600460
:100B210075170122740212017D6004751702227487
:100B31001012017D600475170322742012017D607B
:100B4100037517042274081201E51201E81202412B
:100B51001201E21201EB1202411201E51201E81247
:100B610002411201E21201EB1202411202DE2212D3
:0D0B710002DE317974201202411202DE22F0
:100B7E001205D551BD1201CC750E0012006085B064
:100B8E000F743F12017D7014120064604251F7120F
:100B9E00007351FD1201A2750F00803312006074B4
:100BAE000412018B601151F7120651603251FD1281
:100BBE0001A2750F008018740812018B600F51F797
:100BCE0012047E51FD1201A2750F0080027115856F
:100BDE000F0E7401120241710B600280A1714671F9
:050BEE00127170808B04
:00000001FF
